{
  "contractName": "Wallet",
  "abi": [
    {
      "inputs": [
        {
          "internalType": "address[]",
          "name": "_approvers",
          "type": "address[]"
        },
        {
          "internalType": "uint256",
          "name": "_quorum",
          "type": "uint256"
        }
      ],
      "stateMutability": "nonpayable",
      "type": "constructor"
    },
    {
      "inputs": [
        {
          "internalType": "uint256",
          "name": "",
          "type": "uint256"
        }
      ],
      "name": "approvers",
      "outputs": [
        {
          "internalType": "address",
          "name": "",
          "type": "address"
        }
      ],
      "stateMutability": "view",
      "type": "function",
      "constant": true
    },
    {
      "inputs": [],
      "name": "quorum",
      "outputs": [
        {
          "internalType": "uint256",
          "name": "",
          "type": "uint256"
        }
      ],
      "stateMutability": "view",
      "type": "function",
      "constant": true
    },
    {
      "inputs": [
        {
          "internalType": "uint256",
          "name": "",
          "type": "uint256"
        }
      ],
      "name": "transfers",
      "outputs": [
        {
          "internalType": "uint256",
          "name": "id",
          "type": "uint256"
        },
        {
          "internalType": "uint256",
          "name": "amount",
          "type": "uint256"
        },
        {
          "internalType": "address payable",
          "name": "to",
          "type": "address"
        },
        {
          "internalType": "uint256",
          "name": "approvals",
          "type": "uint256"
        },
        {
          "internalType": "bool",
          "name": "sent",
          "type": "bool"
        }
      ],
      "stateMutability": "view",
      "type": "function",
      "constant": true
    },
    {
      "stateMutability": "payable",
      "type": "receive",
      "payable": true
    },
    {
      "inputs": [],
      "name": "getApprovers",
      "outputs": [
        {
          "internalType": "address[]",
          "name": "",
          "type": "address[]"
        }
      ],
      "stateMutability": "view",
      "type": "function",
      "constant": true
    },
    {
      "inputs": [],
      "name": "getTransfers",
      "outputs": [
        {
          "components": [
            {
              "internalType": "uint256",
              "name": "id",
              "type": "uint256"
            },
            {
              "internalType": "uint256",
              "name": "amount",
              "type": "uint256"
            },
            {
              "internalType": "address payable",
              "name": "to",
              "type": "address"
            },
            {
              "internalType": "uint256",
              "name": "approvals",
              "type": "uint256"
            },
            {
              "internalType": "bool",
              "name": "sent",
              "type": "bool"
            }
          ],
          "internalType": "struct Wallet.Transfer[]",
          "name": "",
          "type": "tuple[]"
        }
      ],
      "stateMutability": "view",
      "type": "function",
      "constant": true
    },
    {
      "inputs": [
        {
          "internalType": "uint256",
          "name": "_amount",
          "type": "uint256"
        },
        {
          "internalType": "address payable",
          "name": "_to",
          "type": "address"
        }
      ],
      "name": "createTransfer",
      "outputs": [],
      "stateMutability": "nonpayable",
      "type": "function"
    },
    {
      "inputs": [
        {
          "internalType": "uint256",
          "name": "_id",
          "type": "uint256"
        }
      ],
      "name": "approveTransfer",
      "outputs": [],
      "stateMutability": "nonpayable",
      "type": "function"
    }
  ],
  "bytecode": "0x60806040523480156200001157600080fd5b5060405162001220380380620012208339818101604052620000379190810190620001ef565b81600090805190602001906200004f9291906200005f565b5080600181905550505062000312565b828054828255906000526020600020908101928215620000db579160200282015b82811115620000da5782518260006101000a81548173ffffffffffffffffffffffffffffffffffffffff021916908373ffffffffffffffffffffffffffffffffffffffff1602179055509160200191906001019062000080565b5b509050620000ea9190620000ee565b5090565b6200013191905b808211156200012d57600081816101000a81549073ffffffffffffffffffffffffffffffffffffffff021916905550600101620000f5565b5090565b90565b6000815190506200014581620002de565b92915050565b600082601f8301126200015d57600080fd5b8151620001746200016e8262000277565b62000249565b915081818352602084019350602081019050838560208402820111156200019a57600080fd5b60005b83811015620001ce5781620001b3888262000134565b8452602084019350602083019250506001810190506200019d565b5050505092915050565b600081519050620001e981620002f8565b92915050565b600080604083850312156200020357600080fd5b600083015167ffffffffffffffff8111156200021e57600080fd5b6200022c858286016200014b565b92505060206200023f85828601620001d8565b9150509250929050565b6000604051905081810181811067ffffffffffffffff821117156200026d57600080fd5b8060405250919050565b600067ffffffffffffffff8211156200028f57600080fd5b602082029050602081019050919050565b6000620002ad82620002b4565b9050919050565b600073ffffffffffffffffffffffffffffffffffffffff82169050919050565b6000819050919050565b620002e981620002a0565b8114620002f557600080fd5b50565b6200030381620002d4565b81146200030f57600080fd5b50565b610efe80620003226000396000f3fe6080604052600436106100745760003560e01c80636cb3e8ef1161004e5780636cb3e8ef146100ff5780639377d7111461012a578063cacca4a01461016b578063d3650fb8146101945761007b565b80631703a018146100805780632f65142c146100ab5780634c12fa47146100d65761007b565b3661007b57005b600080fd5b34801561008c57600080fd5b506100956101d1565b6040516100a29190610d4f565b60405180910390f35b3480156100b757600080fd5b506100c06101d7565b6040516100cd9190610ccd565b60405180910390f35b3480156100e257600080fd5b506100fd60048036036100f891908101906109c8565b6102c5565b005b34801561010b57600080fd5b5061011461049f565b6040516101219190610cab565b60405180910390f35b34801561013657600080fd5b50610151600480360361014c919081019061099f565b61052d565b604051610162959493929190610d6a565b60405180910390f35b34801561017757600080fd5b50610192600480360361018d919081019061099f565b61059d565b005b3480156101a057600080fd5b506101bb60048036036101b6919081019061099f565b610939565b6040516101c89190610c90565b60405180910390f35b60015481565b60606002805480602002602001604051908101604052809291908181526020016000905b828210156102bc57838290600052602060002090600502016040518060a001604052908160008201548152602001600182015481526020016002820160009054906101000a900473ffffffffffffffffffffffffffffffffffffffff1673ffffffffffffffffffffffffffffffffffffffff1673ffffffffffffffffffffffffffffffffffffffff168152602001600382015481526020016004820160009054906101000a900460ff161515151581525050815260200190600101906101fb565b50505050905090565b600080905060008090505b60008054905081101561035a573373ffffffffffffffffffffffffffffffffffffffff166000828154811061030157fe5b9060005260206000200160009054906101000a900473ffffffffffffffffffffffffffffffffffffffff1673ffffffffffffffffffffffffffffffffffffffff16141561034d57600191505b80806001019150506102d0565b5060011515811515146103a2576040517f08c379a000000000000000000000000000000000000000000000000000000000815260040161039990610d0f565b60405180910390fd5b60026040518060a0016040528060028054905081526020018581526020018473ffffffffffffffffffffffffffffffffffffffff16815260200160008152602001600015158152509080600181540180825580915050600190039060005260206000209060050201600090919091909150600082015181600001556020820151816001015560408201518160020160006101000a81548173ffffffffffffffffffffffffffffffffffffffff021916908373ffffffffffffffffffffffffffffffffffffffff1602179055506060820151816003015560808201518160040160006101000a81548160ff0219169083151502179055505050505050565b6060600080548060200260200160405190810160405280929190818152602001828054801561052357602002820191906000526020600020905b8160009054906101000a900473ffffffffffffffffffffffffffffffffffffffff1673ffffffffffffffffffffffffffffffffffffffff16815260200190600101908083116104d9575b5050505050905090565b6002818154811061053a57fe5b90600052602060002090600502016000915090508060000154908060010154908060020160009054906101000a900473ffffffffffffffffffffffffffffffffffffffff16908060030154908060040160009054906101000a900460ff16905085565b600080905060008090505b600080549050811015610632573373ffffffffffffffffffffffffffffffffffffffff16600082815481106105d957fe5b9060005260206000200160009054906101000a900473ffffffffffffffffffffffffffffffffffffffff1673ffffffffffffffffffffffffffffffffffffffff16141561062557600191505b80806001019150506105a8565b50600115158115151461067a576040517f08c379a000000000000000000000000000000000000000000000000000000000815260040161067190610d0f565b60405180910390fd5b600015156002838154811061068b57fe5b906000526020600020906005020160040160009054906101000a900460ff161515146106ec576040517f08c379a00000000000000000000000000000000000000000000000000000000081526004016106e390610d2f565b60405180910390fd5b60001515600360003373ffffffffffffffffffffffffffffffffffffffff1673ffffffffffffffffffffffffffffffffffffffff168152602001908152602001600020600084815260200190815260200160002060009054906101000a900460ff16151514610790576040517f08c379a000000000000000000000000000000000000000000000000000000000815260040161078790610cef565b60405180910390fd5b6001600360003373ffffffffffffffffffffffffffffffffffffffff1673ffffffffffffffffffffffffffffffffffffffff168152602001908152602001600020600084815260200190815260200160002060006101000a81548160ff0219169083151502179055506002828154811061080657fe5b9060005260206000209060050201600301600081548092919060010191905055506001546002838154811061083757fe5b906000526020600020906005020160030154106109355760016002838154811061085d57fe5b906000526020600020906005020160040160006101000a81548160ff02191690831515021790555060006002838154811061089457fe5b906000526020600020906005020160020160009054906101000a900473ffffffffffffffffffffffffffffffffffffffff1690506000600284815481106108d757fe5b90600052602060002090600502016001015490508173ffffffffffffffffffffffffffffffffffffffff166108fc829081150290604051600060405180830381858888f19350505050158015610931573d6000803e3d6000fd5b5050505b5050565b6000818154811061094657fe5b906000526020600020016000915054906101000a900473ffffffffffffffffffffffffffffffffffffffff1681565b60008135905061098481610e9a565b92915050565b60008135905061099981610eb1565b92915050565b6000602082840312156109b157600080fd5b60006109bf8482850161098a565b91505092915050565b600080604083850312156109db57600080fd5b60006109e98582860161098a565b92505060206109fa85828601610975565b9150509250929050565b6000610a108383610a52565b60208301905092915050565b6000610a288383610c0a565b60a08301905092915050565b610a3d81610e52565b82525050565b610a4c81610e52565b82525050565b610a5b81610e40565b82525050565b610a6a81610e40565b82525050565b6000610a7b82610ddd565b610a858185610e0d565b9350610a9083610dbd565b8060005b83811015610ac1578151610aa88882610a04565b9750610ab383610df3565b925050600181019050610a94565b5085935050505092915050565b6000610ad982610de8565b610ae38185610e1e565b9350610aee83610dcd565b8060005b83811015610b1f578151610b068882610a1c565b9750610b1183610e00565b925050600181019050610af2565b5085935050505092915050565b610b3581610e64565b82525050565b610b4481610e64565b82525050565b6000610b57601e83610e2f565b91507f43616e6e6f7420617070726f7665207472616e736665722074776963652100006000830152602082019050919050565b6000610b97601783610e2f565b91507f4f6e6c7920417070726f7665727320616c6c6f776564210000000000000000006000830152602082019050919050565b6000610bd7601683610e2f565b91507f5472616e7366657220616c72656164792073656e7421000000000000000000006000830152602082019050919050565b60a082016000820151610c206000850182610c72565b506020820151610c336020850182610c72565b506040820151610c466040850182610a34565b506060820151610c596060850182610c72565b506080820151610c6c6080850182610b2c565b50505050565b610c7b81610e90565b82525050565b610c8a81610e90565b82525050565b6000602082019050610ca56000830184610a61565b92915050565b60006020820190508181036000830152610cc58184610a70565b905092915050565b60006020820190508181036000830152610ce78184610ace565b905092915050565b60006020820190508181036000830152610d0881610b4a565b9050919050565b60006020820190508181036000830152610d2881610b8a565b9050919050565b60006020820190508181036000830152610d4881610bca565b9050919050565b6000602082019050610d646000830184610c81565b92915050565b600060a082019050610d7f6000830188610c81565b610d8c6020830187610c81565b610d996040830186610a43565b610da66060830185610c81565b610db36080830184610b3b565b9695505050505050565b6000819050602082019050919050565b6000819050602082019050919050565b600081519050919050565b600081519050919050565b6000602082019050919050565b6000602082019050919050565b600082825260208201905092915050565b600082825260208201905092915050565b600082825260208201905092915050565b6000610e4b82610e70565b9050919050565b6000610e5d82610e70565b9050919050565b60008115159050919050565b600073ffffffffffffffffffffffffffffffffffffffff82169050919050565b6000819050919050565b610ea381610e52565b8114610eae57600080fd5b50565b610eba81610e90565b8114610ec557600080fd5b5056fea2646970667358221220f9c576fe1c3270f4a84dfc3eb94e3287223ce7ca3949523d3fddb7bff3b9301364736f6c63430006000033",
  "source": "// SPDX-License-Identifier: GPL-3.0\npragma solidity >=0.6.0 <0.9.0;\npragma experimental ABIEncoderV2;\n\n//Contract Initiation\ncontract Wallet {\n    //Struct containing transfer details.\n    address[] public approvers;\n    uint public quorum;\n    struct Transfer {\n        uint id;\n        uint amount;\n        address payable to;\n        uint approvals;\n        bool sent;\n    }\n    //Creating a transfer variable using the struct\n    Transfer[] public transfers;\n    mapping(address => mapping(uint => bool)) approvals;\n    \n    // Constructor with the list of approver addresses and required number of approvals\n    constructor(address[] memory _approvers, uint _quorum) public {\n        approvers = _approvers;\n        quorum = _quorum;\n    }\n    \n    // Modifier for permission, attached to functions that require permission.\n    modifier onlyApprover() {\n        bool allowed = false;\n        for (uint i = 0; i < approvers.length; i++) {\n            if (approvers[i] == msg.sender) {\n                allowed = true;\n            }\n        }\n        require(allowed == true, \"Only Approvers allowed!\");\n        _;\n    }\n    \n    // Getter function for list of approvers. \n    function getApprovers () external view returns(address[] memory) {\n        return approvers;\n    }\n    \n    // Getter function for transfers.\n    function getTransfers () external view returns(Transfer[] memory) {\n        return transfers;\n    }\n    \n    // Set function to create a transfer\n    function createTransfer (uint _amount, address payable _to) external onlyApprover(){\n        transfers.push(Transfer(\n                transfers.length,\n                _amount,\n                _to,\n                0,\n                false\n            ));\n    }\n    \n    // Set function used by approver to change the state of a pending transfer.\n    function approveTransfer (uint  _id) external onlyApprover(){\n        require(transfers[_id].sent == false, \"Transfer already sent!\");\n        require(approvals[msg.sender][_id] == false, \"Cannot approve transfer twice!\");\n        \n        approvals[msg.sender][_id] = true;\n        transfers[_id].approvals++;\n        \n        if (transfers[_id].approvals >= quorum) {\n            transfers[_id].sent = true;\n            address payable to = transfers[_id].to;\n            uint amount = transfers[_id].amount;\n            to.transfer(amount);\n        }\n    }\n    \n    // Receiver function to receive transfer into the smart contract.\n    receive() payable external {}\n}",
  "sourcePath": "/home/innocent/Documents/My Web Dev Projects/wallet/contracts/wallet.sol",
  "compiler": {
    "name": "solc",
    "version": "0.6.0+commit.26b70077.Emscripten.clang"
  },
  "schemaVersion": "3.3.4",
  "updatedAt": "2021-04-30T13:55:03.840Z",
  "networkType": "ethereum",
  "devdoc": {
    "methods": {}
  },
  "userdoc": {
    "methods": {}
  }
}